:020000040800F2
:10000000400F0020E11D0008F5070008F707000871
:10001000FB070008FF0700080308000800000000B5
:1000200000000000000000000000000007080008B9
:1000300009080008000000000B0800080D0800086F
:10004000FB1D0008FB1D0008FB1D00086B1A0008C3
:10005000FB1D0008FB1D0008FB1D0008FB1D000820
:10006000FB1D0008FB1D0008FB1D0008FB1D000810
:10007000FB1D0008FB1D0008FB1D0008FB1D000800
:10008000FB1D0008FB1D0008FB1D0008FB1D0008F0
:10009000FB1D0008FB1D0008FB1D0008FB1D0008E0
:1000A000FB1D0008FB1D0008FB1D0008FB1D0008D0
:1000B000FF470008830C0008F7160008FB1D000826
:1000C000FB1D0008FB1D0008FB1D0008FB1D0008B0
:1000D000FB1D0008571D00084D160008FB1D0008F9
:1000E000FB1D0008FB1D0008FB1D0008FB1D000890
:1000F000FB1D0008FB1D0008FB1D0008FB1D000880
:10010000FB1D0008FB1D0008FB1D0008FB1D00086F
:10011000FB1D0008FB1D0008FB1D0008FB1D00085F
:10012000FB1D0008FB1D0008FB1D0008FB1D00084F
:1001300000F002F800F0B0F80AA090E8000C824449
:100140008344AAF10107DA4501D100F0A5F8AFF226
:10015000090EBAE80F0013F0010F18BFFB1A43F0A5
:1001600001031847C4810000E48100000A444FF0F5
:10017000000C10F8013B13F0070408BF10F8014B06
:100180001D1108BF10F8015B641E05D010F8016B4B
:10019000641E01F8016BF9D113F0080F1EBF10F8AF
:1001A000014BAD1C0C1B09D16D1E58BF01F801CBD2
:1001B000FAD505E014F8016B01F8016B6D1EF9D555
:1001C0009142D6D37047000000230024002500266A
:1001D000103A28BF78C1FBD8520728BF30C148BFAA
:1001E0000B6070476E2905F0D482702905F06E818E
:1001F000662907F08D80652907F08A80672907F056
:1002000087806129AFF3008003681B0A28BF41F093
:100210008001692905F0DC80642905F0D980752901
:1002200005F0D6806F2905F0CF83782905F03A8153
:10023000E92905F06783E42905F06483F52905F0D1
:100240006183EF2905F0CC83F82905F03981036833
:10025000DB0928BF41F08001632905F0D6827329AC
:1002600005F0DB82E32905F02486F32905F02986D1
:10027000002070471FB505F079FE04000020002122
:1002800006F060FB401C60600020002106F044FB8B
:10029000E0601FBD10B510BD05F03BFE1146FFF735
:1002A000E9FF00F065FA05F017FF03B4FFF7F2FF6E
:1002B00003BC01F0F3FC000010B501F081FC01F07B
:1002C000E7FC4FF4165001F0F7FC00F087FC00F05B
:1002D00007FC00F08BFB41F61F41132000F0A4FC4B
:1002E00000F08EFE01F062FB6423FD4AFD49FE48EA
:1002F00001F030FCFC4801F052FCFC480068FC496D
:10030000B0FBF1F0C4B2FB4841682046884710BDFD
:1003100008B5012300221146104601F092F801238E
:100320001A460021102001F08CF8F3A200212020B1
:1003300001F065F8012302220021502001F081F82C
:10034000012303220021602001F07BF80123042215
:100350000021702001F075F80123052210210020F2
:1003600001F06FF8012306221021084601F069F818
:10037000012307221021202001F063F80123082225
:100380001021302001F05DF80123092210214020C6
:1003900001F057F801230A221021502001F051F8F2
:1003A00001230B221021602001F04BF801230C22C5
:1003B0001021702001F045F8012010232D2220216A
:1003C0000090084600F02AFF012010232D22202152
:1003D0000090382000F022FF01230F22202150201E
:1003E00001F02FF8012310222021602001F029F8CC
:1003F000012010233A2230210090184600F00EFF11
:10040000012010233A2230210090282000F006FF1E
:10041000012318223021402001F013F80123192272
:100420003021502001F00DF8012010233A22302114
:100430000090602000F0F2FE01230022302178209D
:1004400000F03BFF08BD08B501230D22002110205C
:1004500000F0F7FF01230E220021202000F0F1FF21
:10046000012307220021302000F0EBFF01230822A6
:100470000021402000F0E5FF01231D220021502033
:1004800000F0DFFF01231E220021602000F0D9FFD1
:1004900001230D222021084600F0D3FF01230E2264
:1004A0002021302000F0CDFF012010233A2220210E
:1004B0000090402000F0B2FE08BD08B501230522DF
:1004C0000021102000F0BDFF012306220021202082
:1004D00000F0B7FF012307220021302000F0B1FF18
:1004E000012308220021402000F0ABFF01231D2240
:1004F0000021502000F0A5FF01231E2200216020D2
:1005000000F09FFF01231A221021182000F099FF0C
:1005100001231B221021282000F093FF012010232B
:100520003A2219460090382000F078FE08BD08B540
:100530007348807873490978884275D0704880780C
:1005400070490870102000906D4882880423202193
:10055000002000F00AFF10200090694882790223F1
:100560002021282000F001FF102000906448C2796B
:1005700002232021402000F0F8FE6148007A07287D
:1005800036D2DFE800F0040B121920272E000123D9
:1005900011222021702000F054FF29E001231222B3
:1005A0002021702000F04DFF22E0012313222021A2
:1005B000702000F046FF1BE0012314222021702050
:1005C00000F03FFF14E0012315222021702000F0ED
:1005D00038FF0DE0012316222021702000F031FFAA
:1005E00006E0012317222021702000F02AFF00BF1F
:1005F00000BF1020009042480278022330210020E2
:1006000000F0B3FE102000903D48427802233021D4
:10061000182000F0AAFE10200090394882780223AA
:100620003021084600F0A1FE08BDF8B536484488E0
:10063000204601F043FA0646304601F06BFA0646C2
:10064000304606F0E7FDC5B2102002232A463021CD
:100650000090682000F089FEF8BD1CB52BA103C9ED
:10066000CDE900012B480078012813D12A4A202126
:10067000482000F0C4FE284800788DF80100264884
:1006800040788DF80200244880788DF80300684691
:1006900004F040FE1CBD1CB52048008810F4004F3B
:1006A00065D01E4804781E48007853285CD1601E2F
:1006B0001B49085C4E2857D1084640788DF8040045
:1006C000084680788DF805000846C0788DF8060049
:1006D000084600798DF807000120009022E0000014
:1006E0009C0100204C24014008000240040000202E
:1006F00040420F00A800002053494D393038000017
:100700000808002001000020180000204830303088
:10071000520D0A00000000202000002048000020A8
:10072000120800209DF8042010231946402000F0F4
:1007300075FD012000909DF80520102319464820E2
:1007400000F06CFD012000909DF806201023194652
:10075000502000F063FD012000909DF80720102339
:100760001946582000F05AFD0020214908801CBD80
:100770000024FFF7A1FD39E0002000F0CBF9064688
:1007800014E00026322001F057FA681CC5B201209F
:1007900000F0C0F90646282D01DD002408E0601CA9
:1007A000C4B2042C00D1012400F015FC012EE8D0C5
:1007B00000BF0025012C06D1FFF7AAFDFFF7B7FE09
:1007C000FFF733FF10E0022C04D1FFF73CFEFFF7E8
:1007D00044FF09E0032C04D1FFF76FFEFFF75BFF36
:1007E00002E00CB900F0F7FB00F0D2FBC4E7000018
:1007F00048000020704700BFFEE700BFFEE700BFD3
:10080000FEE700BFFEE77047704770477047000083
:100810000CB50020019000906B48006840F48030D7
:100820006949086000BF6848006800F40030009023
:100830000198401C0190009818B90198B0F5A06F7C
:10084000F1D16148006810F4003F02D0012000900F
:1008500001E0002000900098012842D15B48006828
:1008600040F01000594908600846006820F0030075
:1008700008600846006840F002000860524840687E
:10088000514948600846406848600846406840F45E
:10089000806048600846406820F47C104860084644
:1008A000406840F4E81048600846006840F08070F6
:1008B000086000BF4448006810F0007FFAD042484A
:1008C000406820F00300404948600846406840F016
:1008D0000200486000BF3C48406800F00C00082857
:1008E000F9D10CBD10B5FFF793FF10BD10B5364818
:1008F000006840F001003449086008464068344907
:1009000008403149486008460068324908402E498D
:1009100008600846006820F48020086008464068A7
:1009200020F4FE0048604FF41F008860FFF7DAFFF4
:100930004FF000602849086010BD10B5002100206C
:100940000022214B5B6803F00C0121B1042906D081
:10095000082928D107E0214B214C236027E01F4BB9
:100960001F4C236023E0184B5B6803F47010164B98
:100970005B6803F48032022303EB904022B9194BE9
:100980004343174C23600DE00F4B5B6813F4003FAB
:1009900004D0144B4343124C236003E00F4B4343FA
:1009A0000F4C236003E00D4B0D4C236000BF00BFD4
:1009B000054B5B68C3F303130B4CE15C084B1B68EE
:1009C000CB40074C236010BD0010024000200240C5
:1009D0000000FFF8FFFFF6FE08ED00E000127A00CD
:1009E0000400002000093D000800002000B587B089
:1009F00001214FF4017002F0C3F94FF4004002F0FE
:100A000026F90220ADF8040000208DF8070001A9A6
:100A10002F4801F0FBFC2F4801F070FA00200290F3
:100A200001208DF80C008DF80D004FF4602004902B
:100A30000020059002208DF8180002A9254801F039
:100A400084FA072301221146224801F016FB0723EE
:100A5000022210211F4801F010FB012001F032FC9E
:100A600001211C4801F09DFA01211A4801F0A4FA65
:100A7000184801F0B8FA00BF164801F0B9FA00288A
:100A8000FAD1144801F0BEFA00BF124801F0BFFAD3
:100A90000028FAD107B000BD10B50022002014E0F4
:100AA000002107E00C4B03EB810333F810301A44AC
:100AB0004B1CD9B23229F5DB322392FBF3F3074CFE
:100AC00024F810300022431CD8B20228E8DB10BD05
:100AD00000080140002401409C0100201800002073
:100AE00008B50121442002F04BF91C20ADF80000AC
:100AF00048208DF803006946354801F087FC012045
:100B0000ADF8000028208DF803006946314801F057
:100B10007DFC08BD10B5044614B101202E490870B3
:100B20002D480078002837D01021294801F0FFFC1B
:100B300078B10821264801F0FAFC50B1042124487C
:100B400001F0F5FC28B10121224801F0F0FC012858
:100B500022D10A2001F070F800201F4908701021EE
:100B60001B4801F0E4FC08B9012010BD0821184819
:100B700001F0DDFC08B90220F7E70421144801F078
:100B8000D6FC08B90320F0E70121124801F0CFFCA0
:100B900001281BD10420E8E710210D4801F0C7FC13
:100BA000012813D108210A4801F0C1FC01280DD108
:100BB0000421074801F0BBFC012807D101210548A9
:100BC00001F0B5FC10B90120034908700020CCE702
:100BD00000180140000801401C00002008B5012158
:100BE000482002F0CDF82020ADF8000010208DF84C
:100BF000030003208DF802006946094801F006FC55
:100C00002021074801F0ADFC2020ADF80000694626
:100C1000044801F0FBFB2021024801F0A2FC08BDC2
:100C2000000C0140001801407FB505460C4601212B
:100C3000022002F0B2F8ADF80850ADF804400020F0
:100C4000ADF80A00ADF8060001A9A54802F0D4F9F4
:100C500001221146A24802F046FD1D208DF8000039
:100C600000208DF8010003208DF8020001208DF88E
:100C70000300684601F0D9F80121994802F018FDF7
:100C80007FBD70B500260121954802F0DAFF0028EB
:100C90007ED00121924802F0E5FF00220121904818
:100CA00002F021FDFFF7F8FE8E4800888E4908808B
:100CB0008E480068801C8D490860084600688C4991
:100CC0000968401A85B2884800888A49098888429C
:100CD00012DA89480088052190FBF1F000EB400012
:100CE000A84209DA8048008884490988884203DAE2
:100CF0007D480088814908807B4800887D490988B3
:100D0000884209DD784800887D490988884203DDEA
:100D1000754800887A490880FA2D7DDD7248008880
:100D2000744909888842F8DD76480078002873D134
:100D300071480088052190FBF1F000EB4000A842CB
:100D40006ADA01206F4908706848006868490968D4
:100D5000401A6949088065480068654908606A4822
:100D6000007868B1002068490870002406E06248F5
:100D70000088664921F81400601CC4B2092CF6DD15
:100D80006348007868B1002061490870012000E0E4
:100D9000A4E05D49087001221146514802F0A3FC0D
:100DA00070BD00240CE05949601C31F8100021F896
:100DB0001400084630F81400304486B2601CC4B2F7
:100DC000082CF0DD4C480088504948820846408A8B
:100DD000304486B20A2096FBF0F086B24EF66020D0
:100DE00090FBF6F04B49088008460088C82801DDD2
:100DF000C8200880474800881E2802DA1E2045497E
:100E00000880444800880A2190FBF1F201FB12009F
:100E100030304149887000E020E03E48008864217D
:100E200090FBF1F201FB12000A2190FBF1F030304F
:100E30003949487037480088642190FBF1F0303020
:100E40003549087008460078302801D12020087004
:100E500000203149C87001203049087022480088BC
:100E60002449098888421EDA2648007801281AD1C8
:100E70000020244908702248008820490988401A27
:100E800027490880088800EBD0711C4A128802EBC1
:100E90006101184A118010460088194908801046DF
:100EA00000881649088040F6C410854211DD4FF4D1
:100EB00000601049088012490880104908800B48DA
:100EC00000680B49086001201149087000200E4994
:100ED000087001221146024802F005FC00BF5FE7DE
:100EE00000040040180000203C00002028000020E2
:100EF0002C000020340000202400002032000020BC
:100F0000300000202600002039000020640200206C
:100F1000380000203A0000202000002000000020BF
:100F20003600002070B504460E4626B10821FB4865
:100F300001F017FB03E00821F84801F014FB402101
:100F4000F64801F010FB002517E00121F44801F0FC
:100F50000AFB14F0800F04D00221F14801F001FBDC
:100F600003E00221EE4801F0FEFA0121EC4801F015
:100F7000F8FA6006040E681CC5B2082DE5DB4021B6
:100F8000E64801F0EEFA0821E44801F0EAFA70BD03
:100F900070B500241CE004F1B001C8B20021FFF7D5
:100FA000C1FF00210846FFF7BDFF00211020FFF719
:100FB000B9FF002508E0DB4901EBC501085D01210F
:100FC000FFF7B0FF681CC5B2802DF4DB601CC4B213
:100FD000082CE0DB70BD70B500240CE0002506E0B5
:100FE0000020D04901EBC5010855681CC5B2802D11
:100FF000F6DB601CC4B2082CF0DBFFF7C9FF70BD44
:1010000008B501214FF4987001F0BAFE4820ADF800
:10101000000010208DF8030003208DF802006946BF
:10102000BE4801F0F3F94821BC4801F09AFA0320C8
:10103000ADF800006946BA4801F0E8F90321B84864
:1010400001F08FFA4FF40040ADF800006946B64851
:1010500001F0DCF94FF40041B34801F082FA4FF49B
:101060000041B14801F07FFA642000F0E5FD4FF443
:101070000041AD4801F075FA0021AE20FFF752FFA4
:101080000021D520FFF74EFF00218020FFF74AFF07
:101090000021A820FFF746FF00213F20FFF742FF75
:1010A0000021D320FFF73EFF00210846FFF73AFF5B
:1010B00000214020FFF736FF00218D20FFF732FF8F
:1010C00000211420FFF72EFF00212020FFF72AFF28
:1010D00000210220FFF726FF0021A120FFF722FFB9
:1010E0000021C020FFF71EFF0021DA20FFF71AFFC2
:1010F00000211220FFF716FF00218120FFF712FFC9
:101100000021EF20FFF70EFF0021D920FFF70AFF93
:101110000021F120FFF706FF0021DB20FFF702FF8F
:1011200000213020FFF7FEFE0021A420FFF7FAFE89
:101130000021A620FFF7F6FE0021AF20FFF7F2FE08
:10114000FFF749FF08BD10B500218D20FFF7EAFE2B
:1011500000211420FFF7E6FE0021AF20FFF7E2FE9A
:1011600010BD10B500218D20FFF7DCFE00211020FE
:10117000FFF7D8FE0021AE20FFF7D4FE10BDF0B57A
:10118000144600267F2801DC3F2900DDF0BD0B4618
:10119000CF1701EB5777FF10C7F10707FAB2CF1748
:1011A00001EB5777FF10A1EBC707FDB2C5F10707A9
:1011B0000123BB40DEB24CB15A4B03EBC0039B5C36
:1011C0003343584F07EBC007BB5408E0554B03EBC4
:1011D000C0039B5CB343534F07EBC007BB5400BF36
:1011E000D4E72DE9F04706460F4690469946DDF8CC
:1011F00020A034460CE03D4606E0524629462046F3
:10120000FFF7BDFF681CC5B24D45F6DD601CC4B2DA
:101210004445F0DDFFF7BCFEBDE8F0872DE9F04F57
:1012200080460C4615461E46A346A5F12000C5B2D1
:1012300000273EE00C2E07D105EB45003B4901EBB2
:10124000800010F8079004E0394800EB051010F812
:1012500007904FF0000A26E019F0800F05D02146D4
:101260004046099AFFF78BFF09E0099808B9012069
:1012700000E00020024621464046FFF780FF4FEA8B
:1012800049604FEA1069601CC4B2A4EB0B00B04285
:1012900005D15C4608F1010000F0FF0806E00AF104
:1012A000010000F0FF0ABAF1080FD5DB00BF781C7F
:1012B000C7B2B742BEDBBDE8F08F2DE9F04F07465D
:1012C0000C4690461D46A34600263FE0194800EB19
:1012D000081010F806904FF0000A31E019F0800F66
:1012E00005D02A4621463846FFF749FF08E00DB9E8
:1012F000012000E00020024621463846FFF73FFF6C
:101300004FEA49604FEA1069601CC4B2A4EB0B00BD
:10131000102811D15C46781CC7B214E000140140BB
:1013200000100140780200200020014014730008E2
:1013300088770008847D00080AF1010000F0FF0AA8
:10134000BAF1080FCADB00BF701CC6B2102EBDDB9D
:10135000BDE8F08F10B50246012000E050430B00BD
:10136000A1F10104E1B2F9D110BD2DE9FF4F81B027
:10137000074691461E460E9D4FF0000A002439E0B4
:10138000301B401EC1B20A20FFF7E4FFB9FBF0F0AA
:101390000A21B0FBF1F201FB1208BAF1000F16D1DD
:1013A000701EA04213DDB8F1000F0ED10120AB4634
:1013B00005EBDB71491001FB04710090C8B22B46AC
:1013C00030220299FFF72AFF12E04FF0010A0120B4
:1013D000AB4605EBDB71491001FB04710090C8B20C
:1013E00008F13001CAB22B460299FFF717FF00BF80
:1013F000601CC4B2B442C3DB05B0BDE8F08FF8B5E1
:1014000005460E46144618E0772D03DD002506F14B
:101410001000C6B2372E04DD002005460646FFF751
:10142000DAFD012000902278102331462846FFF78C
:10143000F5FE05F10800C5B2641C20780028E3D150
:10144000F8BD2DE9F04F07460C4690461D46A346D1
:10145000002631E01A4800EB481010F806904FF0D3
:10146000000A23E019F0800F05D02A4621463846AD
:10147000FFF785FE08E00DB9012000E000200246DC
:1014800021463846FFF77BFE4FEA49604FEA106974
:10149000601CC4B2A4EB0B00102803D15C46781C7E
:1014A000C7B206E00AF1010000F0FF0ABAF1080F26
:1014B000D8DB00BF701CC6B2202ECBDBBDE8F08F9E
:1014C000947D000810B5044644B10021944802F010
:1014D00083FB0121924802F0EBF803E000219048E1
:1014E00002F0E6F810BD7FB505460C460121042048
:1014F00001F053FCADF80450ADF800400020ADF809
:101500000600ADF802006946854801F075FD01222C
:101510001146834802F0E7F81E208DF80C000120E8
:101520008DF80D0002208DF80E0001208DF80F00BF
:1015300003A800F07AFC7FBD70B58CB006460C465F
:1015400015460121084601F00EFC304602F08EFBE4
:1015500001940295102003900020049005908020B3
:10156000069000200790089009904FF480500A9050
:1015700000200B9001A9304602F01AFC0CB070BD9F
:1015800010B586B004460121042001F0F9FB0121C9
:10159000480401F002FC634801F084F80420ADF82F
:1015A000100003208DF8120018208DF8130004A9F4
:1015B0005D4800F02BFF0820ADF8100004208DF8E6
:1015C000130004A9584800F021FF00940020ADF852
:1015D0000400ADF80600ADF80800ADF80C000C20D2
:1015E000ADF80A0069464F4801F09FF801228021BA
:1015F0004C4801F057F94D4A4A49091D4C48FFF73C
:101600009BFF0121474801F01CF9012240F22551BE
:10161000444801F022F926208DF8140002208DF8AC
:10162000150003208DF8160001208DF8170005A87D
:1016300000F0FBFB41F61F416320FFF754FF002041
:101640003C490880FFF73EFF06B010BD10B540F2E0
:101650002551344801F0E6F900B3324801F062F94F
:10166000C4B234480088C82812DA00212C4802F09D
:10167000B3FA3048008810B90120FFF723FF2D4846
:1016800001880088401C2B4A10802B48445405E0F8
:101690002848008840F400402649088010BD70B5F5
:1016A00004460D460021204602F0ADFB29462046A7
:1016B00002F0BEFB0121204602F0A5FB70BD0FB475
:1016C00038B505A800901948009A049903F010FE57
:1016D0000020009000BF164802F0ACFB0028FAD1B1
:1016E000124803F0C5FFC4B221461148FFF7D7FFE7
:1016F00038BC5DF814FB10B50121094802F0A1FACD
:1017000060B10C48008840F400400A49088001217B
:10171000034802F0A7FA0020FFF7D4FE10BD000036
:101720000008004000440040000801407806002006
:10173000800002403E00002040070020F0B5034634
:101740000C461546642093FBF0F0C6B2642093FB70
:10175000F0F700FB1730C1B2132E02DD01F1640077
:10176000C1B20846CF1701EB977701EBA70207201C
:1017700092FBF0F700FB172082B2601EC84F385C66
:101780001044284482B2CF1701EB9777BF10B1EB1A
:10179000870703D1032C01DA501E82B2072092FB87
:1017A000F0F700FB1720C0B2F0BD0146CA1701EBED
:1017B00092729210B1EB820212D1642091FBF0F28E
:1017C00000FB121050B94FF4C87091FBF0F200FB0F
:1017D000121008B9012070470020FCE70120FAE749
:1017E0000020F8E770B500260024002502F04EFC2A
:1017F0000646AC48B6FBF0F4AB480088A0423CD0AB
:10180000A9490C8040F2B27510E02846FFF7CDFFE1
:1018100040B1B4F5B77F02D3A4F5B77404E0681CF7
:1018200085B206E0A4F26D14681C85B2B4F5B67FEB
:10183000EBD800BF9D488580002516E09B4988882D
:10184000FFF7B3FF30B1012D04D11D2C01D31D3C96
:1018500009E00CE09648405DA04203D89448405D02
:10186000241A00E003E0681C85B21C2CE6D200BFFD
:10187000681C8E498871601CC8718A48B6FBF0F1FB
:1018800000FB11644FF46160B4FBF0F0874908700D
:101890004FF46160B4FBF0F100FB11403C21B0FB60
:1018A000F1F0824948704FF46160B4FBF0F100FB45
:1018B00011403C21B0FBF1F201FB12007B49887022
:1018C0000B46DA7999799888FFF738FF77490872DB
:1018D000002070BD08B503208DF8000000208DF8B1
:1018E00001008DF8020001208DF80300684600F029
:1018F0009CFA08BD2DE9F05F06460F4690469946D2
:10190000DDE90AAB002440F2B270864203DB40F608
:101910003300864202DD0120BDE8F09F40F2B2753F
:101920000AE02846FFF741FF10B16248044401E095
:1019300061480444681C85B2B542F2DB781EC7B228
:10194000002510E05A48405D40F2A321484304EBD3
:10195000C0143046FFF729FF18B1012D01D15148BD
:101960000444681C85B2BD42ECDBA8F1010040F2E2
:10197000A321484304EBC014C9EB4910C0EB092074
:1019800004EB0014CAEB0A1004EB80045C44012150
:101990004FF0C05001F001FA012002F0FCFA20469D
:1019A00002F07DFB02F0AEFB0020B5E71CB5002481
:1019B000042002F0B8FAA0F5A041503947D0012127
:1019C0004FF0C05001F0E9F9012002F0E4FA02F012
:1019D00075FA012001F044F904E0601CC4B20A2049
:1019E00000F02AF9412001F0A4F80028F5D0FA2CE3
:1019F00001DB01201CBD4FF4807001F04AF9012089
:101A000001F04DF902F07EFB02F084FB0121084653
:101A100002F01CFB02F076FB02F025FB47F6FF709C
:101A200002F04AFB02F06EFB372000210A2302225B
:101A3000CDE900100C2140F2D970FFF75BFF02F0F6
:101A40001BFB45F25001042002F061FA07E002F0AE
:101A500061FB0121084602F0F9FA02F053FBFFF79F
:101A600039FFFFF7BFFE0020C4E710B5012002F0E8
:101A700075FB20B1FFF7B6FE012002F07FFB0220CC
:101A800002F06CFB10B1022002F078FB042002F09F
:101A900065FB10B1042002F071FB02F033FB10BDB6
:101AA00080810008805101004000002008080020CB
:101AB000748100080085E2018033E1012DE9F14FD6
:101AC00082B0029805F0C6FB804605F077FB06461B
:101AD0004FF06632184B05F07DF9044604F048FFDC
:101AE0000190019805F06AFB8246144A144B05F0F8
:101AF0006FFA8046134A144B05F014F8064600228C
:101B0000124B04F067FF044604F032FF0090009887
:101B1000BDE8FE8F2DE9F0470446204605F04EFB58
:101B2000074600220A4B05F05FFA054604F020FF45
:101B300081464846BDE8F08766664A3FE17A14AEC2
:101B400047E1F63F22FDF675E09C713F0000394009
:101B500000001840F0B58BB007460C4615461E46EF
:101B60000121084601F0FFF8384602F07FF80094A2
:101B7000019500200290039604908020059040007B
:101B80000690800007902020089000020990002015
:101B90000A906946384602F00BF90BB0F0BD10B55B
:101BA00004460021204602F02EF90121034800F0EE
:101BB00038FA0121204602F026F910BD0024014028
:101BC00010B56FF0040000F07BF92D4800682D4936
:101BD000B0FBF1F02C4908700846007800EB40019A
:101BE000C1EBC0104FF6FF7101EAC0002749088021
:101BF00010BD0146244A12784A434FF0E0235A614F
:101C000000229A611A46126942F001021A6100BF6D
:101C10004FF0E022106910F0010F02D010F4803F65
:101C2000F6D04FF0E022126922F001024FF0E023DB
:101C30001A6100229A6170470146144A12884A4389
:101C40004FF0E0235A6100229A611A46126942F06D
:101C500001021A6100BF4FF0E022106910F0010F7D
:101C600002D010F4803FF6D04FF0E022126922F04B
:101C700001024FF0E0231A6100229A6170470000D0
:101C80000400002000127A004200002044000020DE
:101C900010B54FF4A06000F0C3F810BD014600BFBE
:101CA000704700BF4A4A128812F0400FFAD0C2B201
:101CB000474B1B1D1A80704710B586B004460121A2
:101CC00044F2040001F05CF8414800F0EBFC4FF4F2
:101CD0000070ADF8140003208DF8160018208DF860
:101CE000170005A93B4800F091FB4FF48060ADF868
:101CF000140004208DF8170005A9364800F086FB73
:101D000025208DF8000003208DF801008DF80200D9
:101D100001208DF80300684600F087F80194002048
:101D2000ADF80800ADF80A00ADF80C00ADF81000F1
:101D30000C20ADF80E0001A9254800F0F6FC0122A8
:101D400040F22551224800F088FD0121204800F092
:101D500078FD06B010BD10B540F225511C4800F0CA
:101D600061FE10B31A4800F0DDFDC4B21A480088C5
:101D700010F4004F2BD11848008810F4804F0CD07D
:101D80000A2C03D000201449088020E01248008863
:101D900040F400401049088019E00D2C06D10E488F
:101DA000008840F480400C49088010E00A48008810
:101DB000C0F30D0009490C5407480088401C06492F
:101DC000088008460088C72801DD0020088010BD73
:101DD000003801400008014048000020120800209F
:101DE0000948804709480047FEE7FEE7FEE7FEE7AF
:101DF000FEE7FEE7FEE7FEE7FEE7FEE704480549EB
:101E0000054A064B70470000ED0800083101000844
:101E100040090020400F0020400B0020400B002014
:101E200031490143314A1160704770B500210023E8
:101E30000F22C4780CB32D4C246804F4E064C4F57C
:101E4000E064210AC1F10403CA40447804FA03F1B2
:101E50008478144021430901254C0678A155047863
:101E600004F01F050124AC4005786D114FF0E02609
:101E700006EB8505C5F8004109E0047804F01F056C
:101E80000124AC401B4D0678761145F8264070BD04
:101E9000194A0A400243154B1B1F1A60704739B19B
:101EA000124A121D12680243104B1B1D1A6006E0F5
:101EB0000E4A121D126882430C4B1B1D1A6070479C
:101EC000042808D14FF0E021096941F004014FF0E6
:101ED000E022116107E04FF0E021096921F00401DF
:101EE0004FF0E022116170470000FA050CED00E0B0
:101EF00000E400E080E100E080FFFF1F10B5044631
:101F0000FA48844208D10121401500F053FF002116
:101F1000601500F04FFF17E0F548844208D1012119
:101F2000001500F047FF0021201500F043FF0BE0F3
:101F3000F048844208D10121C80300F03BFF002192
:101F40004FF4004000F036FF10BD30B502460020CF
:101F500000235068E84C20400D790C6844EA0524C1
:101F6000204350609068E54C2040D1E902542C4356
:101F70004D7944EA450420439060D06A20F4700013
:101F80000C7C641EE4B2234340EA0350D06230BDAF
:101F900000210160017141718160C1600121017402
:101FA000704721B1826842F00102826003E08268DA
:101FB00022F001028260704721B1826842F480728F
:101FC000826003E0826822F480728260704710B5FC
:101FD0000023CBB21AB144681C43446002E0446859
:101FE0009C43446010BD816841F0080181607047E6
:101FF000014600208A6812F0080F01D0012000E09D
:1020000000207047816841F00401816070470146FB
:1020100000208A6812F0040F01D0012000E00020A7
:10202000704721B1826842F4A002826003E08268B6
:1020300022F4A00282607047014600208A6812F4F0
:10204000800F01D0012000E00020704710B50A4643
:1020500000210023416821F46041531E41EA4331CD
:10206000416010BD21B1426842F40062426003E069
:10207000426822F4006242607047F0B504460D46A3
:1020800000200021092D11DDE068A5F10A0606EB0C
:102090004607072606FA07F18843A5F10A0606EB6C
:1020A000460603FA06F10843E0600CE0206905EB00
:1020B0004507072606FA07F1884305EB450603FAAC
:1020C00006F108432061072A0FDA606B561E06EB03
:1020D00086071F2606FA07F18843561E06EB86067A
:1020E00005FA06F10843606322E00D2A0FDA206B3F
:1020F000D61F06EB86071F2606FA07F18843D61F70
:1021000006EB860605FA06F10843206310E0E06A54
:10211000A2F10D0606EB86071F2606FA07F1884393
:10212000A2F10D0606EB860605FA06F10843E06209
:10213000F0BD21B1826842F48012826003E08268BF
:1021400022F48012826070470146C86C80B27047EA
:1021500066484C300068704721B1426842F48062A2
:10216000426003E0426822F480624260704721B11D
:10217000426842F48052426003E0426822F4805296
:10218000426070470A460021816821F4E041114312
:102190008160704721B1826842F40042826003E0AE
:1021A000826822F400428260704721B1826842F462
:1021B0000212826003E0826822F402128260704799
:1021C000014600208A6812F4001F01D0012000E0BF
:1021D00000207047F0B50446154600200022002676
:1021E000092911DDE068A1F10A0707EB470C072771
:1021F00007FA0CF29043A1F10A0707EB470703FA2D
:1022000007F21043E0600CE0206901EB410C072766
:1022100007FA0CF2904301EB410703FA07F210436F
:102220002061A06BC0F30156EF1C06F1010CA7EB77
:102230000C0707EB870C1F2707FA0CF29043EF1CE3
:1022400006F1010CA7EB0C0707EB870701FA07F271
:102250001043A063F0BD10B50A4600210023816B36
:1022600021F44011531E41EA0351816310BD08B5AA
:10227000002300930090009B0B440093009B1A6086
:1022800008BD08B5024600200090009201F1280028
:10229000009B184400900098006880B208BD0A4670
:1022A00000214168164B194011434160704741625B
:1022B000826270470A460021416821F01F011143E4
:1022C0004160704740B109490831096841F4000193
:1022D000064A0832116007E004490831096821F410
:1022E0000001024A083211607047000000240140DA
:1022F00000280140003C0140FFFEF0FFFDF7F1FF28
:10230000FFFD3FFF0246002013680B4201D0012071
:1023100000E000207047CA430260704770B5024673
:102320000020002300240B125568CEB205EA0604F3
:1023300015681D4202D00CB1012000E0002070BDE4
:1023400000220A12D34303607047000010B5044610
:10235000CA48844208D10121042000F02BFD00214D
:10236000042000F027FD46E0C548844208D1012141
:10237000082000F01FFD0021082000F01BFD3AE0BE
:10238000C048844208D10121102000F013FD002133
:10239000102000F00FFD2EE0BB48844208D101213F
:1023A000202000F007FD0021202000F003FD22E0A6
:1023B000B648844208D10121402000F0FBFC0021F6
:1023C000402000F0F7FC16E0B148844208D101211A
:1023D000802000F0EFFC0021802000F0EBFC0AE000
:1023E000AC48844207D10121801500F0E3FC0021B4
:1023F000A01500F0DFFC10BD10B50121084600F06B
:10240000D9FC0021012000F0D5FC10BD2DE9F041E0
:10241000024600250026002000230024002791F812
:1024200003C00CF00F0591F803C01CF0100F03D08F
:1024300091F802C04CEA050591F800C0BCF1000F0C
:1024400031D0146800202BE04FF0010C0CFA00F39F
:10245000B1F800C00CEA03069E4220D183004FF081
:102460000F0C0CFA03F7BC4305FA03FC4CEA040416
:1024700091F803C0BCF1280F06D14FF0010C0CFA03
:1024800000FCC2F814C00AE091F803C0BCF1480F88
:1024900005D14FF0010C0CFA00FCC2F810C0401C32
:1024A0000828D1D31460B1F800C0BCF1FF0F34DDAF
:1024B000546800202EE000F1080C4FF0010808FAE3
:1024C0000CF3B1F800C00CEA03069E4221D1830050
:1024D0004FF00F0C0CFA03F7BC4305FA03FC4CEA6F
:1024E000040491F803C0BCF1280F05D100F1080CD9
:1024F00008FA0CF8C2F8148091F803C0BCF1480F38
:1025000007D100F1080C4FF0010808FA0CF8C2F8E6
:102510001080401C0828CED35460BDE8F0814FF6EF
:10252000FF710180022181700421C1707047024651
:10253000002093680B4201D0012000E0002070478A
:102540000146886880B2704702460020D3680B427B
:1025500001D0012000E0002070470146C86880B229
:10256000704701617047416170470AB1016100E045
:1025700041617047C16070474FF480320A43826105
:102580008161826182698269704702460020424B04
:1025900018684FF68073184040EA021008433E4B1B
:1025A000186070473D49C8617047F0B50A4600237E
:1025B00000240021002500F00046B6F1004F02D1B2
:1025C000354EF16901E0344E7168C0F3034583B2C2
:1025D00000F44016B6F5401F08D121F070612E4E70
:1025E000766826F070662C4F7E6012E000F480164C
:1025F000B6F5801F06D1032606FA05F4A14341F083
:10260000706106E0460D360103FA06F6B14341F06B
:10261000706122B1460D360103FA06F6314300F02F
:102620000046B6F1004F02D11B4EF16101E01A4E97
:102630007160F0BD30B500228B071C0F0F2303FA29
:1026400004F2154B08338C1053F824309343124C8A
:1026500008348D1044F8253023468C1053F824306C
:102660008C07240F00FA04F423430B4C08348D101C
:1026700044F8253030BD0A49086070470008014021
:10268000000C0140001001400014014000180140FE
:10269000001C0140002001400000014000002042D9
:1026A000DC00204210B50446FB48844209D10121D8
:1026B000880300F07FFB00214FF4804000F07AFB9C
:1026C00032E0F648844209D10121480400F07FFB42
:1026D00000214FF4003000F07AFB25E0F0488442FE
:1026E00009D10121880400F072FB00214FF4802001
:1026F00000F06DFB18E0EB48844209D10121C804C9
:1027000000F065FB00214FF4002000F060FB0BE0BF
:10271000E548844208D10121080500F058FB00215A
:102720004FF4801000F053FB10BD2DE9F04786B048
:1027300005460E460024A24600BFA1460027B089E8
:1027400000B100BF2F462C8A4CF6FF700440F08881
:1027500004432C82AC894EF6F3100440B0883189D2
:102760000843718908430443AC81AC8A4FF6FF40AB
:102770000440B0890443AC8201A800F094FAC64832
:10278000874202D1DDF810A001E0DDF80CA0A88995
:1027900010F4004F08D00AEBCA0000EB0A103168B1
:1027A0004900B0FBF1F807E00AEBCA0000EB0A10A1
:1027B00031688900B0FBF1F86420B8FBF0F0040147
:1027C0002009642101FB1089A88910F4004F08D06A
:1027D000322000EBC900B0FBF1F000F00700044329
:1027E00008E0322000EB09106421B0FBF1F000F0AA
:1027F0000F0004432C8106B0BDE8F0874FF416515A
:10280000016000218180C18001810C214181002172
:102810008181704710B502460020108A4FF2FF03F5
:1028200018400B884C8823438C882343CC8823434F
:102830001843108210BD0021018041808180C18039
:10284000704721B1828942F40052828104E082897A
:102850004DF6FF731A4082817047F0B5034600249D
:10286000002600250020A1F510676A3F00D100BFB7
:102870001846C1F3421401F01F06012707FA06F5B6
:10288000012C01D10C3004E0022C01D1103000E009
:1028900014301AB107682F43076002E00768AF439E
:1028A0000760F0BD1AB1838A0B43838202E0838AFA
:1028B0008B4383827047028A4FF6F0731A4002827C
:1028C000028A0A430282704782894FF2FF731A40DC
:1028D000828182890A438281704721B1828942F0D4
:1028E0000202828104E082894FF6FD731A408281E0
:1028F0007047028A4FF6DF731A400282028A0A4347
:102900000282704721B1028A42F48042028204E0CE
:10291000028A4BF6FF731A4002827047C1F3080225
:102920008280704701468888C0F30800704781891B
:1029300041F0010181817047028BD2B20283028B88
:1029400042EA012202837047028B02F47F42028333
:10295000028B0A430283704721B1828A42F020022F
:10296000828204E0828A4FF6DF731A4082827047C7
:1029700021B1828A42F01002828204E0828A4FF6FC
:10298000EF731A408282704721B1828A42F00802B6
:10299000828204E0828A4FF6F7731A40828270477F
:1029A00021B1828942F40042828103E08289C2F32C
:1029B0000E028281704721B1828A42F400628282D3
:1029C00004E0828A4FF2FF731A4082827047828A43
:1029D0004FF6FB731A408282828A0A4382827047D2
:1029E00021B1828A42F00202828204E0828A4FF69A
:1029F000FD731A408282704702460020B1F5007FC5
:102A000000D100BF13880B4201D0012000E000205C
:102A1000704701F40072B2F5007F00D100BFCA43D5
:102A20000280704770B50246002400230025002074
:102A3000A1F510666A3E00D100BFC1F3421501F056
:102A40001F03012606FA03F3012D02D196893340B4
:102A500006E0022D02D1168A334001E0968A334007
:102A60000C12012606FA04F41688344013B10CB196
:102A7000012000E0002070BD10B500220023A1F568
:102A800010646A3C00D100BF0A1201249440A3B232
:102A9000DC43048010BD00000038014000440040C9
:102AA00000480040004C004000500040DD480068F5
:102AB00040F00100DB49086008464068DA490840F8
:102AC000D849486008460068D8490840D549086098
:102AD0000846006820F4802008600846406820F41A
:102AE000FE0048604FF41F0088607047CD490968B8
:102AF00021F48031CB4A11601146096821F480210C
:102B00001160B0F5803F03D0B0F5802F0ED106E004
:102B1000C449096841F48031C24A116007E0C149E3
:102B2000096841F4A021BF4A116000E000BF00BF66
:102B3000704710B501460022002300204A11012AE7
:102B400002D1B84C236806E0022A02D1B54C236AB0
:102B500001E0B44C636A01F01F02012494401C425E
:102B600001D0012000E0002010BD38B50020009009
:102B70000024002500BF3120FFF7DBFF0546009849
:102B8000401C00900098B0F5A06F01D0002DF2D04D
:102B90003120FFF7CEFF08B1012400E000242046D9
:102BA00038BD014600209F4A106820F0F80040EA36
:102BB000C100106070479E490860704702460020BF
:102BC000984B586820F47C1042EA01031843954B57
:102BD0005860704796490866704701460020914A40
:102BE000506820F003000843506070478D484068EB
:102BF00000F00C007047014600208A4A506820F01F
:102C0000F00008435060704701460020854A506834
:102C100020F4E06008435060704701460020814A7C
:102C2000506820F4605040EAC1005060704729B1FC
:102C30007C4A527A02437B4B5A7204E0794A527AB8
:102C40008243784B5A7270477A4908607047014650
:102C50000020744A506820F4404008435060704798
:102C60000021754A11706F4A82F82010012802D0A5
:102C7000042808D103E001216F4A117004E0052106
:102C80006D4A117000E000BF00BF70476B490860DB
:102C900070476449096A0143624A11627047674993
:102CA00044390860704730B5002100220024002319
:102CB0005C4D6D6805F00C0121B1042905D008298F
:102CC00023D105E05E4D056022E05D4D05601FE00B
:102CD000544D6D6805F47012524D6D6805F48034E2
:102CE000022505EB92421CB9564D554305600BE099
:102CF0004C4D6D6815F4003F03D0524D55430560AF
:102D000002E04F4D5543056002E04D4D056000BFA8
:102D100000BF444D6D6805F0F00109094A4D6B5C38
:102D20000568DD4045603F4D6D6805F4E061090AC6
:102D3000454D6B5C4568DD4085603A4D6D6805F436
:102D40006051C90A404D6B5C4568DD40C560354D3A
:102D50006D6805F44041890B3C4D6B5CC568B5FB63
:102D6000F3F5056130BD29B12E4A526902432D4B5E
:102D70005A6104E02B4A526982432A4B5A617047D8
:102D800029B1284A92690243264B9A6104E0254AF8
:102D900092698243234B9A61704729B1214AD269D3
:102DA0000243204BDA6104E01E4AD26982431D4B84
:102DB000DA61704729B11B4AD2680243194BDA60C5
:102DC00004E0184AD2688243164BDA60704729B192
:102DD000144A12690243134B1A6104E0114A126942
:102DE0008243104B1A61704714494039086070479C
:102DF0000F49C86470470B49C87170470948406A59
:102E000040F0807007494862704701460020054A3B
:102E100092680A4201D0012000E000207047014979
:102E200088727047001002400000FFF8FFFFF6FEB6
:102E300000004242D8004242201002408004424238
:102E400000127A0000093D005000002060000020C0
:102E500010B50446FE48844208D10121C014FFF792
:102E6000A9FF0021E014FFF7A5FFC4E0B4F1804FF3
:102E700008D101210846FFF7AAFF00210120FFF732
:102E8000A6FFB8E0F348844208D101210220FFF7F1
:102E90009EFF00210220FFF79AFFACE0EE4884423B
:102EA00008D101210420FFF792FF00210420FFF741
:102EB0008EFFA0E0E948844208D101210820FFF7F5
:102EC00086FF00210820FFF782FF94E0E448844257
:102ED00008D101211020FFF77AFF00211020FFF711
:102EE00076FF88E0DF48844208D101212020FFF7E7
:102EF0006EFF00212020FFF76AFF7CE0DA48844261
:102F000008D101214014FFF755FF00216014FFF79D
:102F100051FF70E0D548844209D10121C804FFF770
:102F200049FF00214FF40020FFF744FF63E0D04841
:102F3000844209D101210805FFF73CFF00214FF42D
:102F40008010FFF737FF56E0CA48844209D10121BB
:102F50004805FFF72FFF00214FF40010FFF72AFF6D
:102F600049E0C548844208D101214020FFF72FFFE6
:102F700000214020FFF72BFF3DE0C048844208D1EC
:102F800001218020FFF723FF00218020FFF71FFF92
:102F900031E0BB48844208D101218015FFF717FFBB
:102FA0000021A015FFF713FF25E0B648844209D1A0
:102FB00001210804FFF7FEFE00214FF48030FFF7E7
:102FC000F9FE18E0B048844209D101214804FFF716
:102FD000F1FE00214FF40030FFF7ECFE0BE0AB48B0
:102FE000844208D101218804FFF7E4FE00214FF458
:102FF0008020FFF7DFFE10BD00220288944B98422C
:103000000ED0994B98420BD0B0F1804F08D0914B25
:10301000984205D0904B984202D0904B984204D1F0
:103020004FF68F731A404B881A438D4B984207D046
:103030008C4B984204D04FF6FF431A40CB881A437A
:1030400002808B8883850B880385814B98420BD047
:10305000854B984208D08B4B984205D08A4B9842BA
:1030600002D08A4B984201D10B7A038601238382D6
:10307000704770B5002400220023058C4FF6FE76C1
:1030800035400584028C8388048B4FF68F752C4065
:10309000B51E2C400D882C43751E2A400D892A43ED
:1030A0004D882A436A4DA8420BD06F4DA84208D0E4
:1030B000744DA84205D0744DA84202D0734DA84269
:1030C00013D14FF6F7752A404D892A434FF6FB7509
:1030D0002A408D882A434FF6FF652B404FF6FF5557
:1030E0002B408D892B43CD892B4383800483CD884E
:1030F0008586028470BD70B5002400220023058CF3
:103100004FF6EF7635400584028C8388048B48F6B1
:10311000FF752C404FF6FF452C400D884FF6FF768B
:1031200006EA05252C434FF6DF752A400D8906EA8D
:1031300005152A434D8806EA05152A43444DA84241
:1031400002D0494DA8421DD14FF67F752A404D89C6
:103150004FF6FF7606EA05152A434FF6BF752A405B
:103160008D8806EA05152A434FF6FF352B404FF2AE
:10317000FF752B408D8906EA85052B43CD8906EA2C
:1031800085052B4383800483CD880587028470BD29
:1031900070B5002400220023058C4FF6FF663540F1
:1031A0000584028C8388848B4FF68F752C404FF6F4
:1031B000FC752C400D882C434FF6FF552A400D8995
:1031C0004FF6FF7606EA05252A434D8806EA0525CF
:1031D0002A431F4DA84202D0234DA8421DD14FF2D1
:1031E000FF752A404D894FF6FF7606EA05252A43EA
:1031F0004FF6FF352A408D8806EA05252A434EF60C
:10320000FF752B404DF6FF752B408D8906EA05159D
:103210002B43CD8906EA05152B4383808483CD8813
:103220008587028470BD70B5002200230024058CC0
:103230004EF6FF7635400584038C8488828B48F6F1
:10324000FF752A404FF6FF452A400D8820E0000018
:10325000002C01400004004000080040000C004029
:10326000001000400014004000340140004C0140B8
:10327000005001400054014000180040001C004074
:10328000002000400040014000440140004801404F
:103290004FF6FF7606EA05252A434DF6FF752B40CB
:1032A0000D8906EA05352B434D8806EA05352B4383
:1032B000FA4DA84202D0FA4DA84208D14BF6FF754C
:1032C0002C408D894FF6FF7606EA85152C438480C5
:1032D0008283CD88A0F84050038470BD828B4FF26A
:1032E000FF331A408283828B4FF6FF7303EA012378
:1032F0001A4382837047F0B50C4615460022002120
:103300000026078C4EF6FF7C07EA0C070784828BA9
:10331000018C4FF6FF7707EA043640F6FF473A4044
:103320004FF6FF7707EA05273A434FF6FF7707EA9C
:1033300003373A43D94FB8420ED0D94FB8420BD0D9
:10334000B0F1804F08D0D74FB84205D0D64FB84221
:1033500002D0D64FB84206D14DF6FF77394046F439
:103360008057394305E047F6FF57394044F480570A
:10337000394382830184F0BD828B4FF6F3731A4088
:103380008283828B0A4382837047F0B50C461546D0
:10339000002200210026078C4FF6FF6C07EA0C077D
:1033A0000784828B018C4FF6FF7707EA04264FF6DD
:1033B0000C773A404FF6FF7707EA03172F433A435B
:1033C000B64FB8420ED0B64FB8420BD0B0F1804FD6
:1033D00008D0B44FB84205D0B34FB84202D0B34F73
:1033E000B84206D14FF6FF57394046F4807739434B
:1033F00005E04FF2FF57394044F480773943828328
:103400000184F0BD028B4FF2FF331A400283028B1E
:103410004FF6FF7303EA01231A4302837047F0B5A6
:103420000C461546002200210026078C4FF6EF7C43
:1034300007EA0C070784028B018C4FF6FF7707EA37
:10344000041640F6FF473A404FF6FF7707EA033786
:103450003A434FF6FF7707EA05273A438F4FB842C2
:103460000ED08F4FB8420BD0B0F1804F08D08D4FA7
:10347000B84205D08C4FB84202D08C4FB84206D12A
:103480004FF6DF77394046F01007394305E04FF635
:103490005F77394044F01007394302830184F0BD5F
:1034A000028B4FF6F3731A400283028B0A430283A6
:1034B0007047F0B50C46154600220021068C4FF6E9
:1034C000FE773E400684028B018C4FF60C7632402C
:1034D0007E1C06EA03162E433243704EB0420ED0D5
:1034E0006F4EB0420BD0B0F1804F08D06D4EB0425D
:1034F00005D06D4EB04202D06C4EB04206D14FF6B0
:10350000FD76314044F00106314305E04FF6F57693
:10351000314044F00106314302830184F0BD70B5AF
:1035200005460C465D4885420ED05D4885420BD06D
:10353000B5F1804F08D05B48854205D05A48854296
:1035400002D05A48854200D100E000BF208850B91F
:103550002389A28861882846FFF7ABFFE1882846C7
:10356000FFF79EFF25E0208804280AD12389A2883E
:1035700061882846FFF753FFE1882846FFF742FF9E
:1035800017E0208808280AD12389A2886188284664
:10359000FFF7FBFEE1882846FFF7EEFE09E02389EE
:1035A000A28861882846FFF7A6FEE1882846FFF733
:1035B00095FE70BD2DE9F04105460C460026012719
:1035C000608808B9022600E00026A088012801D101
:1035D000022700E001272088A0B92389A2886188FA
:1035E0002846FFF766FFE1882846FFF759FF238941
:1035F0003A4631462846FFF712FFE1882846FFF792
:1036000001FF13E02389A28861882846FFF707FF9E
:10361000E1882846FFF7F6FE23893A4631462846D8
:10362000FFF747FFE1882846FFF73AFFBDE8F08142
:103630000A884B881A438B881A43CB881A430B8914
:103640001A434B891A438B891A43A0F844207047C8
:103650004FF6FF71818000210180C180418001729D
:1036600070470021018041808180C18001814181BA
:103670008181C181704700210180418001218180C9
:103680000021C1800181704700210180418081803B
:10369000C18001814181818170470000002C01407F
:1036A000003401400004004000080040000C0040CD
:1036B00021B1028842F00102028004E002884FF644
:1036C000FE731A400280704731B1B0F8442042F4D2
:1036D0000042A0F8442005E0B0F84420C2F30E02F6
:1036E000A0F8442070471AB183890B43838102E01C
:1036F00083898B43838170478182704741EA02034B
:10370000A0F8483070471AB183890B43838102E0E7
:1037100083898B438381704701894FF6F87211408A
:10372000018170470A46002101894FF68F731940C5
:1037300011430181704730B504460D4629462046A5
:10374000FFF7F0FF208940F00700208130BD2DE910
:10375000F04104460D4616461F46602D06D13B46F5
:10376000012231462046FFF75AFE05E03B46012282
:1037700031462046FFF79DFE29462046FFF7D2FF3F
:10378000208940F007002081BDE8F08130B50C466B
:1037900000210189C9B24FF6FF7505EA03251543DB
:1037A00025432943018130BD2DE9F04105460E46F0
:1037B00017469846002443463A4631462846FFF7C6
:1037C000E5FF2C894FF6F870044044F007044FF6EB
:1037D0008F70044044F070042C81BDE8F081F0B596
:1037E00004460D4616461F463B46324629462046AD
:1037F000FFF7CCFF208940F480402081F0BD018597
:10380000828270470A46002101884FF68F73194063
:10381000114301807047F0B50C4615461E46002145
:10382000002200230189028B038C4FF6F877394080
:1038300021434FF6FC473A4040F201173A434FF616
:10384000DD773B404FF6FF7707EA06172F433B43F0
:10385000018102830384F0BD0A460021018B4FF6EB
:103860008F7319401143018370470A460021018B71
:1038700048F6FF7319404FF6FF7303EA022319431A
:10388000018370470A460021818B4FF68F731940E0
:103890001143818370470A460021818B48F6FF73EC
:1038A00019404FF6FF7303EA0223194381837047DF
:1038B00021B1028842F08002028004E002884FF6C3
:1038C0007F731A400280704721B1828842F004025F
:1038D000828004E082884FF6FB731A408280704732
:1038E00021B1828842F00802828004E082884FF68B
:1038F000F7731A408280704721B1828842F001023A
:10390000828004E082884FF6FE731A4082807047FE
:103910000A460021018B4FF6F773194011430183CA
:1039200070470A460021018B4FF2FF7319404FF692
:10393000FF7303EA02231943018370470A460021FB
:10394000818B4FF6F77319401143818370470A4604
:103950000021818B4FF2FF7319404FF6FF7303EA8A
:1039600002231943818370470A460021018B4FF6D9
:10397000FB7319401143018370470A460021018BF4
:103980004FF6FF3319404FF6FF7303EA0223194342
:10399000018370470A460021818B4FF6FB73194063
:1039A0001143818370470A460021818B4FF6FF3314
:1039B00019404FF6FF7303EA0223194381837047CE
:1039C0000A460021018B4FF67F7319401143018392
:1039D00070470A460021018BC1F30E014FF6FF73B9
:1039E00003EA02231943018370470A460021818BB1
:1039F0004FF67F7319401143818370470A460021B7
:103A0000818BC1F30E014FF6FF7303EA02231943C2
:103A1000818370470A460021018C4FF6FD731940DF
:103A20001143018470470A460021018C4FF6F77359
:103A300019401143018470470A460021018C4FF65A
:103A4000DF7319404FF6FF7303EA02131943018431
:103A500070470A460021018C4FF67F7319404FF6DC
:103A6000FF7303EA02131943018470470A460021D9
:103A7000018C4FF6FF5319404FF6FF7303EA022300
:103A80001943018470470A460021018C4FF2FF73ED
:103A900019404FF6FF7303EA02231943018470476C
:103AA0000A460021018C4DF6FF7319404FF6FF7353
:103AB00003EA023319430184704730B5002301241F
:103AC0008C40A3B2048C9C430484048C02FA01F55C
:103AD000ADB22C43048430BD30B5002304248C40A7
:103AE000A3B2048C9C430484048C02FA01F5ADB2A9
:103AF0002C43048430BD70B50346002000241846D2
:103B0000183001258D40ACB21D8CA5431D8409B130
:103B1000082909D100EB6100056825F070050560F2
:103B20000568154305600EE00D1FC5F34E052844DA
:103B3000056825F4E045056005684FF6FF7606EA5E
:103B400002263543056070BD21B1028842F00202B1
:103B5000028004E002884FF6FD731A40028070472D
:103B600021B1028842F00402028004E002884FF68C
:103B7000FB731A400280704721B1828842F08002B4
:103B8000828004E082884FF67F731A4082807047FB
:103B900002884FF6F7731A40028002880A430280B7
:103BA000704782884FF68F731A40828082880A435A
:103BB0008280704702894FF6F8731A4002810289A9
:103BC0000A430281704702894FF67F731A400281CF
:103BD00002890A430281704781847047818570475A
:103BE000818670470187704781877047A0F8401031
:103BF000704702884FF6FF431A40028002880A434A
:103C0000028070470146888E70470146088F7047D2
:103C10000146888F70470146B1F840007047014661
:103C2000888C70470146088D704702460020138A31
:103C30000B4201D0012000E000207047CA430282FD
:103C4000704730B50246002000230024158A05EA9B
:103C50000103958905EA010413B10CB1012000E0CC
:103C6000002030BDCA4302827047000001684FF651
:103C7000FE72114001600021016041608160C160FD
:103C80008C49884208D18B490839496841F00F01B5
:103C9000884A083A51608AE086491431884208D13E
:103CA00084490839496841F0F001824A083A516074
:103CB0007DE080492831884208D17E490839496829
:103CC00041F470617B4A083A516070E079493C31B7
:103CD000884208D177490839496841F47041754AEA
:103CE000083A516063E073495031884208D1714904
:103CF0000839496841F470216E4A083A516056E02B
:103D00006C496431884208D16A490839496841F4EC
:103D10007001684A083A516049E066497831884242
:103D200008D164490839496841F07061614A083A2C
:103D300051603CE06049884206D1011F096841F0AA
:103D40000F01021F116032E05B491431884208D133
:103D50005949091F096841F0F001574A121F1160C3
:103D600025E055492831884208D15349091F09687F
:103D700041F47061504A121F116018E04E493C3105
:103D8000884208D14C49091F096841F470414A4AE8
:103D9000121F11600BE048495031884207D1464953
:103DA000091F096841F47021434A121F11607047CE
:103DB00010B50022026847F6F0739A430C6A8B68CC
:103DC00023430C6923434C6923438C692343CC6907
:103DD00023434C6A23438C6A23431A430260CB6813
:103DE00043600B6883604B68C36010BD00210160B5
:103DF00041608160C160016141618161C1610162B5
:103E000041628162704721B1026842F001020260A2
:103E100004E002684FF6FE731A40026070471AB160
:103E200003680B43036002E003688B430360704741
:103E3000416070470146486880B2704701460020E3
:103E4000002211F0805F03D01B4B083B1A6802E090
:103E5000184B083B1A680A4201D0012000E00020FC
:103E6000704710F0805F03D01349091F086002E01B
:103E7000104908394860704701460020002211F0BF
:103E8000805F03D00C4B083B1A6802E0094B083BEB
:103E90001A680A4201D0012000E00020704710F0AB
:103EA000805F03D00449091F086002E00149083916
:103EB00048607047080002400804024010B5012025
:103EC000FEF792FF0020FEF78FFF10BD2A49086021
:103ED00070472949091F08607047274984310860E5
:103EE000704701460020254A10884FF67F42104057
:103EF0000843224A10807047014600201F4A10885C
:103F00004FF68072104008431C4A1080704708B575
:103F100000220092194A2C3A0092009A0244009220
:103F2000009A116008BD08B50146002000901348B2
:103F30002C3800900098084400900098008808BD34
:103F40000D489C300068C0B270470C4808300088AB
:103F500040F0010009490831088070470648A03048
:103F60000068C0B2704705480830008840F0020081
:103F7000024908310880704704860D422C6C0040CD
:103F800010B501210807FEF722FF00214FF08050F5
:103F9000FEF71DFF10BD29490862704727490861D7
:103FA000704701460020264A106820F0E0000843D0
:103FB0001060704723490860704710B50246002022
:103FC0001F4B186820F00300104318601E4B1B683D
:103FD00043F004031C4C2360012901D130BF00E0F1
:103FE00020BF194B1B6823F00403174C236010BD3E
:103FF0001348006840F00400114908600846006852
:1040000040F0020008601048006840F004000E49CB
:10401000086000BF00BF30BF704701460020084A5B
:1040200052680A4201D0012000E000207047044994
:10403000096841EA8001024A1160704700000E429F
:1040400000700040A0000E4210ED00E029B14F4A80
:10405000128802434D4B1A8004E04C4A1288824376
:104060004A4B1A8070474948001D008840F01000F4
:104070004649091D088070474448001D00884FF6D6
:10408000EF7108404149091D0880704700213F48F1
:104090001C300188001F008841EA0040704700B5CD
:1040A0000246FFF7E0FF100C384918310880091D5F
:1040B0000A80FFF7E1FF00BD00B50246FFF7D3FF1E
:1040C000C2F30340314908310880091D0A80FFF717
:1040D000D3FF00BD00B50246FFF7C5FF100C2B490A
:1040E00020310880091D0A80FFF7C6FF00BD0020AF
:1040F0002649103109880907080B24491431098819
:104100000843704700BF2148001D008810F0200FB1
:10411000F9D070471D48001D00884FF6F771084020
:104120001A49091D088000BF1848001D008810F0BA
:10413000080FF9D0704701460020144A121D12885A
:104140000A4201D0012000E0002070470F49091DFC
:10415000098881430D4A121D1180704701460020D5
:104160000A4A121D12880A40D0B2084A12880A422E
:1041700002D008B1012000E0002070470349091D6A
:1041800009888143014A121D1180704700280040B0
:1041900010B58CB004461E230BAA03A9204600F0DC
:1041A000A9FE0090009810B101200CB010BD9DF840
:1041B0002C00044400200B900EE040489DF82C2079
:1041C00050F8221003A800F0FDFD00B908E09DF8AA
:1041D0002C00401CC0B20B909DF82C000728ECD39B
:1041E00000BF9DF82C00072863D2DFE800F004052B
:1041F0003C5E6564630000BF31A001F08BF831A024
:1042000001F088F83FA001F085F84EA001F082F897
:104210005CA001F07FF86BA001F07CF879A001F0C0
:1042200079F886A001F076F88BA001F073F890A0E1
:1042300001F070F894A001F06DF899A001F06AF80F
:104240009EA001F067F8A4A001F064F8B0A001F00E
:1042500061F8BDA001F05EF8C8A001F05BF8D4A041
:1042600001F058F89AE216A001F054F8E0A001F02D
:1042700051F800200B900EE0ED4800689DF82C20CE
:1042800000EBC2004168EBA001F044F89DF82C005F
:10429000401CC0B20B90E648007D9DF82C1088426F
:1042A000EADC07A001F036F878E205A001F032F868
:1042B000C4E171E245E219E2ECE100006400002093
:1042C0000D0A00002D2D2D2D2D2D2D2D2D2D2D2DBB
:1042D0002D2D2D2D2D2D2D2D2D2D2D2D55534D418C
:1042E00052542056332E312D2D2D2D2D2D2D2D2D8B
:1042F0002D2D2D2D2D2D2D2D2D2D2D2D2D2D2D20FB
:104300000D0A00002020202055534D415254CAC7A9
:10431000D3C9414C49454E54454BBFAAB7A2B5C479
:10432000D2BBB8F6C1E9C7C9B5C4B4AEBFDAB5F7F8
:10433000CAD4BBA5BDBBD7E9BCFE2CCDA8B9FD2016
:104340000D0A0000CBFC2CC4E3BFC9D2D4CDA8B960
:10435000FDB4AEBFDAD6FACAD6B5F7D3C3B3CCD064
:10436000F2C0EFC3E6B5C4C8CEBACEBAAFCAFD2C10
:10437000B2A2D6B4D0D02ED2F2B4CB2CC4E3BFC9F3
:104380000D0A0000D2D4CBE6D2E2B8FCB8C4BAAF72
:10439000CAFDB5C4CAE4C8EBB2CECAFD28D6A7B3DD
:1043A000D6CAFDD7D62831302F3136BDF8D6C6292A
:1043B000A1A2D7D6B7FBB4AEA1A2BAAFCAFDC8EBD3
:1043C0000D0A0000BFDAB5D8D6B7B5C8D7F7CEAA60
:1043D000B2CECAFD292CB5A5B8F6BAAFCAFDD7EE44
:1043E000B6E0D6A7B3D63130B8F6CAE4C8EBB2CE41
:1043F000CAFD2CB2A2D6A7B3D6BAAFCAFDB7B520B4
:104400000D0A0000BBD8D6B5CFD4CABE2ED0C2D4B8
:10441000F6B2CECAFDCFD4CABEBDF8D6C6C9E8D65C
:10442000C3B9A6C4DC2CD0C2D4F6BDF8D6C6D7AA70
:10443000BBBBB9A6C4DC2E0D0A000000BCBCCAF58B
:10444000D6A7B3D63A7777772E6F70656E656476A8
:104450002E636F6D0D0A000055534D415254D3D059
:1044600037B8F6CFB5CDB3C3FCC1EE3A0D0A0000A4
:104470003F3A202020202020BBF1C8A1B0EFD6FA7F
:10448000D0C5CFA20D0A000068656C703A202020CC
:10449000BBF1C8A1B0EFD6FAD0C5CFA20D0A00007B
:1044A0006C6973743A202020BFC9D3C3B5C4BAAFB6
:1044B000CAFDC1D0B1ED0D0A0A00000069643A20BE
:1044C00020202020BFC9D3C3BAAFCAFDB5C4494418
:1044D000C1D0B1ED0D0A0A006865783A202020208D
:1044E000B2CECAFD3136BDF8D6C6CFD4CABE2CBABC
:1044F000F3B8FABFD5B8F12BCAFDD7D6BCB4D6B441
:10450000D0D0BDF8D6C6D7AABBBB0D0A0A000000A2
:104510006465633A20202020B2CECAFD3130BDF858
:10452000D6C6CFD4CABE2CBAF3B8FABFD5B8F12BD1
:10453000CAFDD7D6BCB4D6B4D0D0BDF8D6C6D7AA9B
:10454000BBBB0D0A0A00000072756E74696D653A96
:10455000312CBFAAC6F4BAAFCAFDD4CBD0D0BCC6EA
:10456000CAB13B302CB9D8B1D5BAAFCAFDD4CBD083
:10457000D0BCC6CAB13B0D0A0A000000C7EBB0B4FC
:10458000D5D5B3CCD0F2B1E0D0B4B8F1CABDCAE44D
:10459000C8EBBAAFCAFDC3FBBCB0B2CECAFDB2A273
:1045A000D2D4BBD8B3B5BCFCBDE1CAF82E0D0A000D
:1045B0002D2D2D2D2D2D2D2D2D2D2D2D2D2D2D2D2B
:1045C0002D2D2D2D2D2D2D2D2D2D414C49454E546C
:1045D000454B2D2D2D2D2D2D2D2D2D2D2D2D2D2DD5
:1045E0002D2D2D2D2D2D2D2D2D2D2D200D0A0000A5
:1045F0002D2D2D2D2D2D2D2D2D2D2D2D2D2D2D2DEB
:104600002D2D2D2D2D2D2D2D2DBAAFCAFDC7E5B584
:10461000A52D2D2D2D2D2D2D2D2D2D2D2D2D2D2D52
:104620002D2D2D2D2D2D2D2D2D2D2D2D200D0A0037
:10463000A800002025730D0A00000000EFA000F084
:1046400069FE00200B901AE0FC4909689DF82C20B7
:1046500001EBC20101AB02AA486803A900F070FC9B
:10466000F64800689DF82C1050F8312003A9F4A0FA
:1046700000F050FE9DF82C00401CC0B20B90EF489B
:10468000007D9DF82C108842DEDCAFF2CC3000F0CB
:1046900041FE83E0AFF2D83000F03CFE0BAA03A944
:1046A000204600F029FD9DF82C00C8B9694603A8F2
:1046B00000F0BBFB0B909DF82C0020B9E5A0009901
:1046C00000F028FE0EE09DF82C00042801D0022006
:1046D0006BE5E3A000F01EFE0120D849C87501E09B
:1046E000022062E5DDA000F015FE57E0DBA000F03F
:1046F00011FE0BAA03A9204600F0FEFC9DF82C0039
:10470000C8B9694603A800F090FB0B909DF82C00F7
:1047100020B9D8A0009900F0FDFD0EE09DF82C0016
:10472000042801D0022040E5D5A000F0F3FD0020D0
:10473000C249C87501E0022037E5C8A000F0EAFDD3
:104740002CE0C6A000F0E6FD0BAA03A9204600F06D
:10475000D3FC9DF82C00C8B9694603A800F065FB9E
:104760000B909DF82C0078B9B449009881F8EC00C2
:10477000084690F8EC0018B1C6A000F0CBFD07E0A9
:10478000CBA000F0C7FD03E002200EE502200CE5FF
:10479000B2A000F0BFFD01E0012006E500BF00204F
:1047A00003E54FF08040008A20F001004FF0804187
:1047B00008824FF6FF708885002088849F49C1F8E1
:1047C000F00070474FF08040008A10F0010F08D0D1
:1047D0009A48D0F8F0004FF6FF7108449749C1F8A5
:1047E000F0009648D0F8F0004FF08041898C0844E2
:1047F0009249C1F8F0000846D0F8F000704710B5B3
:104800004FF08040008A10F0010F09D08B490869F1
:10481000804700204FF0804188844FF47A7088856B
:104820004FF08040008A20F001004FF08041088264
:1048300010BD7FB505460C4601210846FEF7ADFACE
:10484000ADF80850ADF804400020ADF80A00ADF80E
:10485000060001A94FF08040FEF7CEFB0122412166
:104860008807FEF740FF1C208DF8000003208DF81C
:1048700001008DF8020001208DF803006846FDF765
:10488000D4FA01218807FEF713FF7FBD10B5044657
:1048900004EBC40000EB04100122C2EB800081B2E3
:1048A0004FF47A70FFF7C5FF01206449C87510BD49
:1048B00030B595B0054613AB12AA09A9284600F0F9
:1048C0003FFB044614B1204615B030BD00201490C3
:1048D00026E05A4909689DF8502001EBC20113AB4C
:1048E00011AA486801A900F02BFB04460CB1204630
:1048F000EAE709A901A800F065FA60B99DF844004B
:104900009DF84810884201DD0220DDE79DF8500047
:104910004A4988750AE09DF85000401CC0B21490C6
:104920004648007D9DF850108842D2DC00BF4348C5
:10493000007D9DF85010884201D10420C4E714A9DD
:10494000284600F04AFC04460CB12046BCE79DF81E
:1049500050003A4948750020B6E72DE9F0419AB079
:104960003648847D007DA04202DC1AB0BDE8F081AB
:104970003249096801EBC40106AB07AA486808A9D7
:1049800000F0DEFA08A951A000F0C4FC0026B7E050
:104990002A48018B0120B04001421BD022214DA0AA
:1049A00000F0B8FC304600F00BFC244924314718D5
:1049B000394649A000F0AEFC222146A000F0AAFC36
:1049C000304600F0FDFB1D492431084410A941F890
:1049D00026008BE0304600F0F3FB184924310858DC
:1049E00010A941F826001548C07D30B910A850F82C
:1049F00026103AA000F08EFC78E071E02D2D2D2DD0
:104A00002D2D2D2D2D2D2D2D2D2D2D2D2D2D2D2DD6
:104A10002D2D2D2D2DBAAFCAFD204944202D2D2D31
:104A20002D2D2D2D2D2D2D2D2D2D2D2D2D2D2D2DB6
:104A30002D2D2D2D2D2D2D2D200D0A00A80000200F
:104A400025732069642069733A0D0A30582530387F
:104A5000580D0A004845583A305825580D0A0000AC
:104A60003136BDF8D6C6B2CECAFDCFD4CABE210DEE
:104A70000A0000004445433A256C750D0A00000009
:104A80003130BDF8D6C6B2CECAFDCFD4CABE210DD4
:104A90000A00000052756E2054696D652043616CF8
:104AA00063756C6174696F6E204F4E0D0A000000D3
:104AB00052756E2054696D652043616C63756C613D
:104AC00074696F6E204F46460D0A00000D0A25736B
:104AD000280000002563000025730000256C750088
:104AE00010A850F8261095A000F014FC9DF81C00AA
:104AF000401EB04202D093A000F00CFC701CC6B265
:104B00009DF81C008642FFF643AF8FA000F002FC28
:104B1000FFF747FE8D48407D0B280DD2DFE800F0FF
:104B2000060D151E27323F4E5F72870087490968C0
:104B300051F834008047054690E0844A126852F8E4
:104B4000341010988847054688E0804B1B6853F85E
:104B50003420DDE91001904705467FE07B4F3F6838
:104B600057F8343010A807C89847054676E0DFF8B4
:104B7000DCC1DCF800C05CF8347010A80FC8B8477E
:104B800005466BE01498DFF8C4C10090DCF800C063
:104B90005CF8347010A80FC8B84705465EE0DDE940
:104BA0001401DFF8A8C1CDE90001DCF800C05CF811
:104BB000347010A80FC8B84705464FE0DDE914125D
:104BC0001698DFF888C1CDE900120290DCF800C029
:104BD0005CF8347010A80FC8B84705463EE0DDE920
:104BE0001423DDE91610DFF864C1CDE90023CDE917
:104BF0000210DCF800C05CF8347010A80FC8B84789
:104C000005462BE0DDE91523DDE91710CDE9012389
:104C1000CDE903101498DFF834C10090DCF800C02F
:104C20005CF8347010A80FC8B847054616E0DDE9F7
:104C3000173216991998CDE9033202910590DDE9F2
:104C40001401DFF808C1CDE90001DCF800C05CF810
:104C5000347010A80FC8B847054600BF00BFFFF763
:104C6000B1FD9DF8180001280CD13848C07D20B94D
:104C7000294637A000F04EFB07E0294636A000F099
:104C800049FB02E033A000F045FB304890F8EC000F
:104C900088B12E48D0F8F0000A21B0FBF1F201FBF8
:104CA00012072A48D0F8F000B0FBF1F83A46414626
:104CB0002CA000F02FFB00BF57E670B531480088EC
:104CC00010F4004F33D02F48057800202E49485566
:104CD0001E4881682C48884704461CB91B49C8688F
:104CE000804721E02848FFF753FA0546012D00D000
:104CF0002C46CCB1012C06D0022C08D0032C0AD0B3
:104D0000042C10D10BE021A000F004FB0BE022A04A
:104D100000F000FB07E023A000F0FCFA03E024A071
:104D200000F0F8FA00BF00BF00201649088070BDEF
:104D300001460868704701607047000030582558E8
:104D4000000000002C00000029000000A800002046
:104D50003D256C753B0D0A003D305825583B0D0A2A
:104D60000000000046756E6374696F6E2052756EA8
:104D70002054696D653A25642E2531646D730D0AE2
:104D8000000000004800002012080020BAAFCAFD51
:104D9000B4EDCEF3210D0A00B2CECAFDB4EDCEF3D0
:104DA000210D0A00B2CECAFDCCABB6E0210D0A003F
:104DB000CEB4D5D2B5BDC6A5C5E4B5C4BAAFCAFD9B
:104DC000210D0A0002460AE010780B78984201D0C3
:104DD00001207047107800B902E0521C491CF3E72B
:104DE00000BF0020F5E706E002780A70027802B9F9
:104DF00002E0401C491CF7E700BF70470146002055
:104E000005E00A7802B903E0421CD0B2491CF8E779
:104E100000BF704710B50246012000E050430B0070
:104E2000A1F10104E1B2F9D110BD2DE9F04307462B
:104E30000E4600254FF00A083C46002030601FE077
:104E40002078392802DC207830280ADA20784628B1
:104E500002DC2078412804DA2078582809D1012D75
:104E600007D12078412801DB4FF01008681CC5B23B
:104E700005E0207800B904E00120BDE8F083641C5F
:104E8000DEE700BF3C46B8F1100F0FD1032D01DA69
:104E90000220F2E72078302806D16078582803D124
:104EA000A41CA81EC5B204E00320E6E70DB9042047
:104EB000E3E71BE00DB1681EC5B22078392806DC97
:104EC0002078302803DB2078A0F1300902E0207838
:104ED000A0F1370929464046FFF79CFF316809FBDE
:104EE00000103060641C207800B900E0E2E700BFE9
:104EF0000020C2E710B50446002010700BE02078B7
:104F00000870641C491C1078401C1070107898427E
:104F100001DB012010BD2078202802D02078002855
:104F2000EDD10020087000BFF4E70146491C00E005
:104F3000491C0878202801D10029F9D10878704748
:104F40002DE9FF4F85B08046894600270020049058
:104F50000390012002904FF0000B002544461DE015
:104F60002078202816D005F07F00052812DA0DB928
:104F700045F0800505F07F00042803D120782A2819
:104F800000D00EE0207805F07F010DF80100681CCC
:104F9000C5B202E0852D00D103E0641C2078002812
:104FA000DED100BF8DB1002005F07F010DF80100BA
:104FB000CBA16846FFF706FF18B9002108980170D9
:104FC00002E001210898017000254FF0000A4446D4
:104FD00014E0641C0AF1010000F0FF0A2078202888
:104FE00002D020782A2809D12046FFF79EFF0646E6
:104FF000282E03D02A2E01D0CDF810A02078282802
:1050000002D020780028E4D14446049810B10498D6
:10501000401C04444FF0000A002654E0207810B9E8
:105020004FF0010A50E02078282803D116B9781CE7
:10503000C7B213E02078292808D13EB917B1781EED
:10504000C7B201E04FF0010A47B93DE020782228BD
:1050500004D10EB9012000E00020064647B92078AF
:1050600020282FD0207889F8000009F1010929E0D3
:1050700020782C2804D101200290681CC5B214E0CD
:105080002078202811D0207828280ED04DB9BBF1E7
:10509000050F06DA20780DF80B000BF1010000F087
:1050A000FF0B0298401CC0B20290012F0AD1029857
:1050B000022807D10298401CC0B202900398401CFD
:1050C000C0B20390641CA9E700BF0398012809D16E
:1050D00000200DF80B0082A16846FFF773FE08B9A7
:1050E00000200390079903980870002089F80000B9
:1050F000504609B0BDE8F08FF0B5034615460020D4
:1051000000220026002455E01F782C2F01D104B97D
:1051100001221F78292F01D01F780FB904B94AE066
:10512000002E34D11F78302F02DB1F78392F11DD8C
:105130001F78612F02DB1F78662F0BDD1F78412F50
:1051400002DB1F78462F05DD1F78582F02D01F780D
:10515000782F0CD102B12EE01F78612F03DB1F786E
:10516000203F0F7001E01F780F70491C1FE01F786F
:10517000222F04D102B11EE00126012417E01F787E
:10518000202F14D01F782C2F11D0FF2613E01F786A
:10519000222F00D1002402B10DE044B11F785C2F12
:1051A00002D15B1C471CF8B21F780F70491C471CCA
:1051B000F8B25B1CA8E700BF00270F702E70F0BD8F
:1051C00002460020002105E0474B5B5C0344D8B257
:1051D0004B1CD9B29142F7DB70472DE9F043B5B0D3
:1051E00005460F460024002604E000213E48815574
:1051F000701CC6B20A2EF8DB06E06D1C287818B9C0
:10520000012035B0BDE8F08328782828F5D16D1C41
:1052100061E034AA69462846FFF76EFF064635442A
:105220009DF8D00020B1012827D0FF284CD149E0BB
:105230009DF8000000B333A96846FFF7F6FD064667
:105240000EB10220DDE72046FFF7BAFF26490A31FA
:10525000339A0A50A1F12400008B0121A140884318
:1052600021491A39088304211F480155601CC4B222
:105270000A2C01DD0320C4E726E06846FFF7BEFDE7
:10528000401C00F0FF082046FFF79AFF16490A313C
:1052900000EB010949466846FFF7A5FD12481A3898
:1052A000018B0120A040014388B20F491A390883BD
:1052B0000D4800F80480601CC4B20A2C01DD0320F4
:1052C0009FE701E002209CE700BF2878292801D051
:1052D000287800B900E09CE700BF3C70002090E710
:1052E000766F696400000000C20000207047000073
:1052F0001CB50C46064B7B4469460090204600F0E6
:1053000062FA04460020694600F070FA20461CBD8F
:10531000F30400000FB4044910B503AA029800F08A
:1053200081FA10BC5DF814FB4C00002070B50446F7
:1053300085690068C10601D5302600E02026C00737
:1053400008D070BDD4E9012130469047206A00F1B1
:10535000010020626D1EF5D570BD70B504468569EB
:105360000078C00708D170BDD4E901212020904702
:10537000206A00F1010020626D1EF5D570BD70B588
:105380000C460546012A05D02878800600D5EA6932
:10539000002302E0012305E05B1C934202D2E05CA3
:1053A0000028F9D1A869E618C01AA861286A18442B
:1053B00028622846FFF7BAFF04E0D5E9012114F876
:1053C000010B9047B442F8D32846FFF7C6FF70BDE3
:1053D0002DE9F0410646002410687529314616A5CE
:1053E00011D000F068F9002803DAC0F1000013A51D
:1053F00007E031688A0701D511A502E0490704D505
:1054000010A5012401E000F05FF900210A2306F154
:10541000240707E0B0FBF3F203FB120030307854AE
:105420001046491C0028F5D123462A463046BDE8DF
:10543000F04100F052B90000000000002D00000013
:105440002B00000020000000F0B40D460188090583
:1054500002D5234C7C4402E0214C7C440E340021D4
:1054600000F124060BE002F00F074FEA1212E75D8D
:1054700042EA03724FEA1313775401F1010152EA31
:105480000307F0D102780023120704D5702D06D04F
:1054900009B1113402232246F0BC00F01EB91034C9
:1054A0000123F8E770B504460D462146106800F068
:1054B0000BF9024629462046BDE870400023C3E7A9
:1054C000D21D22F00703D3E90023BDE70368126869
:1054D00043F0200303600823C3610023B4E7000006
:1054E000342D00002DE9F05F894604464FF0000A94
:1054F000DFF878B1FB44C0F820A02046E168884777
:10550000002875D0252806D0D4E901219047206ACB
:10551000401C2062F1E700265F462046E16888478C
:105520002028054608DB312D06D207EB050010F8D0
:10553000200C08B10643F0E7B00701D526F00406B9
:10554000C4F81CA00027C4F818A02A2D09D02846AA
:1055500001F0DBF938B304EB8708303DC8F8185088
:1055600019E059F8041B204604EB87029161E168B9
:105570008847012F054618D1E069002820DA26F077
:1055800020061DE0D8F8180000EB800005EB400075
:105590003038C8F818002046E1688847054601F011
:1055A000B4F90028EED1012F0AD02E2D08D12046C3
:1055B000E16888477F1C0546022F46F02006C4DBC1
:1055C000A069002803DA404246F00106A061F00716
:1055D00001D026F010066C2D0BD0682D09D04C2D73
:1055E00039D06A2D35D0742D35D07A2D33D016E0D0
:1055F00038E0E1682F4620468847B842054609D181
:105600006C2F26D04FF48060E1680643204688471F
:10561000054604E06C2F1AD04FF4807006430DB39A
:10562000A5F14100192802D8203546F400664A4603
:105630002946204626604E46FAF7D4FD80B101285F
:105640000BD0F61D26F0070000F1080955E74020B1
:10565000E4E78020D8E70020D6E706F104094CE70C
:10566000284651E7206ABDE8F09F0000BC2C0000EE
:1056700010B5431C02E010F8011B71B18107FAD18B
:105680004FF0013202C88C1A8C4314EAC211F9D0CF
:10569000C01A0A0603D0C01E10BDC01A10BD0A04ED
:1056A00001D0801E10BD0902FCD0401E10BD704705
:1056B00070477047704709684A0501D540B2704786
:1056C000C905FCD500B2704709684A0501D5C0B2CA
:1056D0007047C905FCD580B270472DE9F0470D46EB
:1056E00099469246044600F124080168880604D5CC
:1056F000E06921F01001216000E00120A84202DDF4
:10570000A0EB050700E00027A16907EB050202EB0B
:105710000900A1EB0000A0612078C00602D4204659
:10572000FFF704FE002608E0D4E901211AF806007C
:105730009047206A401C761C20624E45F4DB20789E
:10574000C0060AD52046FFF7F1FD06E0D4E90121A5
:1057500030209047206A401C2062381EA7F10107C4
:10576000F4DC07E0D4E9012118F805009047206A2D
:10577000401C2062281EA5F10105F3DC2046FFF73E
:10578000ECFD2078000602D50220BDE8F08701205C
:10579000FBE711680268006A530501D508700BE049
:1057A000D30501D5088007E0130603D5C217C1E968
:1057B000000201E0520608600120704701694A1C9E
:1057C00002610878704700B58FB0CDE90131002142
:1057D000059105497944CDE9031011466846FFF764
:1057E00081FE0FB000BD0000E5FFFFFF0A6802F870
:1057F000010B0A60704710B5436913B1AFF3008025
:1058000001E0FFF7BCFD012010BD127800F124017A
:105810000A7000224A700122EDE711684FF0FF3252
:10582000E9E70000074B70B50D467B44FFF7CBFF5F
:105830000446284600F049FB10B14FF0FF3070BD20
:10584000204670BD75C4FFFF2DE9FF5F15468A46EF
:105850000446DFF8AC80F8440027D8E900103E4643
:10586000CDE9001011E03AF816106A4602A800F0DF
:1058700030FB411C07D02178890603D5E26939182D
:1058800091420ED8074406F101062078800602D521
:10589000E069B84205DDAE42E5DB3AF816000028C3
:1058A000E1D1A069C01BA0612046FFF73FFDD8E908
:1058B0000010CDE90010002016E03AF818106A46F2
:1058C00002A800F006FB8146401C0BD000250DF11C
:1058D000080B05E0D4E901211BF8050090476D1C79
:1058E0004D45F7D308F10100B0428046E5DB206A60
:1058F000384420622046FFF730FDBDE8FF9F0000DE
:105900006E2900002DE9F0418046D21D22F00702E9
:105910000025D2E90002F52914A612D0002A06DAE1
:105920000023D0EB030063EB020211A608E0D8F8D5
:1059300000108B0701D50FA602E0490701D50EA67E
:1059400001251146002408F1240704E000F052F874
:1059500030323A55641C50EA0102F7D12B463246E8
:1059600021464046BDE8F041FFF7B7BE0000000009
:105970002D0000002B0000002000000030B40021AA
:1059800000F124040CE002F0070505F130054FEAB0
:10599000D20242EA4372655401F101014FEAD30396
:1059A00052EA0305EFD10468002310A2250708D5A9
:1059B00004F020040C4304D0C46901230CA2641E2B
:1059C000C46130BCFFF789BE10B50446214610689B
:1059D000FFF77AFE02462046BDE810400023CDE7DF
:1059E000D21D22F00701D1E90023C7E70000000023
:1059F0003000000030B5B0F10A024FEA900E71F1AC
:105A000000034EEA817EB0EB0E0061EB91014FEA9C
:105A1000101E4EEA017E10EB0E0041EB11114FEA11
:105A2000102E4EEA016E10EB0E0041EB11214FEAF1
:105A3000104E4EEA014E10EB0E0041EB11414018A2
:105A400041F100014FEAD00040EA41704FEAD10134
:105A500010EB80054FEA810444EA907444EB0104A2
:105A60006D1944EB0404521BA3414FF0000348BFDF
:105A70000A3200D530BD401C41F1000130BD7047F5
:105A80002DE9FF4F0C461E464FF0FF378BB0D2E991
:105A90000001DDF860800A908A46C1F30A5505B915
:105AA0003D46002108464FF00000BAF1000F00F417
:105AB000400005DA00EB80004FF4400101EA50009D
:105AC0004FEA9059B9F1010F00DDB9460A9850EA42
:105AD0004A000ED044F61050A5F2FF3545432F146E
